{
  "contractName": "CrowdFund",
  "abi": [
    {
      "inputs": [
        {
          "internalType": "uint256",
          "name": "_startTime",
          "type": "uint256"
        },
        {
          "internalType": "uint256",
          "name": "_endTime",
          "type": "uint256"
        },
        {
          "internalType": "uint256",
          "name": "_weiTokenPrice",
          "type": "uint256"
        },
        {
          "internalType": "uint256",
          "name": "_etherInvestmentObject",
          "type": "uint256"
        }
      ],
      "payable": false,
      "stateMutability": "nonpayable",
      "type": "constructor"
    },
    {
      "anonymous": false,
      "inputs": [
        {
          "indexed": true,
          "internalType": "address",
          "name": "investor",
          "type": "address"
        },
        {
          "indexed": false,
          "internalType": "uint256",
          "name": "value",
          "type": "uint256"
        }
      ],
      "name": "LogInvestment",
      "type": "event"
    },
    {
      "anonymous": false,
      "inputs": [
        {
          "indexed": false,
          "internalType": "address",
          "name": "investor",
          "type": "address"
        },
        {
          "indexed": false,
          "internalType": "uint256",
          "name": "numTokens",
          "type": "uint256"
        }
      ],
      "name": "LogTokenAsignment",
      "type": "event"
    },
    {
      "anonymous": false,
      "inputs": [
        {
          "indexed": false,
          "internalType": "address",
          "name": "investor",
          "type": "address"
        },
        {
          "indexed": false,
          "internalType": "uint256",
          "name": "value",
          "type": "uint256"
        }
      ],
      "name": "Refund",
      "type": "event"
    },
    {
      "constant": true,
      "inputs": [],
      "name": "crowdSaleToken",
      "outputs": [
        {
          "internalType": "contract KCoin",
          "name": "",
          "type": "address"
        }
      ],
      "payable": false,
      "stateMutability": "view",
      "type": "function"
    },
    {
      "constant": true,
      "inputs": [],
      "name": "endTime",
      "outputs": [
        {
          "internalType": "uint256",
          "name": "",
          "type": "uint256"
        }
      ],
      "payable": false,
      "stateMutability": "view",
      "type": "function"
    },
    {
      "constant": true,
      "inputs": [
        {
          "internalType": "address",
          "name": "",
          "type": "address"
        }
      ],
      "name": "investmentAmount",
      "outputs": [
        {
          "internalType": "uint256",
          "name": "",
          "type": "uint256"
        }
      ],
      "payable": false,
      "stateMutability": "view",
      "type": "function"
    },
    {
      "constant": true,
      "inputs": [],
      "name": "investmentReceived",
      "outputs": [
        {
          "internalType": "uint256",
          "name": "",
          "type": "uint256"
        }
      ],
      "payable": false,
      "stateMutability": "view",
      "type": "function"
    },
    {
      "constant": true,
      "inputs": [],
      "name": "investmentRefunded",
      "outputs": [
        {
          "internalType": "uint256",
          "name": "",
          "type": "uint256"
        }
      ],
      "payable": false,
      "stateMutability": "view",
      "type": "function"
    },
    {
      "constant": true,
      "inputs": [],
      "name": "isFinalized",
      "outputs": [
        {
          "internalType": "bool",
          "name": "",
          "type": "bool"
        }
      ],
      "payable": false,
      "stateMutability": "view",
      "type": "function"
    },
    {
      "constant": true,
      "inputs": [],
      "name": "isRefundingAllowed",
      "outputs": [
        {
          "internalType": "bool",
          "name": "",
          "type": "bool"
        }
      ],
      "payable": false,
      "stateMutability": "view",
      "type": "function"
    },
    {
      "constant": true,
      "inputs": [],
      "name": "owner",
      "outputs": [
        {
          "internalType": "address",
          "name": "",
          "type": "address"
        }
      ],
      "payable": false,
      "stateMutability": "view",
      "type": "function"
    },
    {
      "constant": true,
      "inputs": [],
      "name": "startTime",
      "outputs": [
        {
          "internalType": "uint256",
          "name": "",
          "type": "uint256"
        }
      ],
      "payable": false,
      "stateMutability": "view",
      "type": "function"
    },
    {
      "constant": true,
      "inputs": [],
      "name": "tokenPriceLevel",
      "outputs": [
        {
          "internalType": "string",
          "name": "",
          "type": "string"
        }
      ],
      "payable": false,
      "stateMutability": "view",
      "type": "function"
    },
    {
      "constant": true,
      "inputs": [],
      "name": "weiInvestmentObjective",
      "outputs": [
        {
          "internalType": "uint256",
          "name": "",
          "type": "uint256"
        }
      ],
      "payable": false,
      "stateMutability": "view",
      "type": "function"
    },
    {
      "constant": true,
      "inputs": [],
      "name": "weiTokenPrice",
      "outputs": [
        {
          "internalType": "uint256",
          "name": "",
          "type": "uint256"
        }
      ],
      "payable": false,
      "stateMutability": "view",
      "type": "function"
    },
    {
      "constant": false,
      "inputs": [],
      "name": "adjustPriceLevel",
      "outputs": [],
      "payable": false,
      "stateMutability": "nonpayable",
      "type": "function"
    },
    {
      "constant": false,
      "inputs": [],
      "name": "invest",
      "outputs": [],
      "payable": true,
      "stateMutability": "payable",
      "type": "function"
    },
    {
      "constant": false,
      "inputs": [],
      "name": "finalize",
      "outputs": [],
      "payable": false,
      "stateMutability": "nonpayable",
      "type": "function"
    },
    {
      "constant": false,
      "inputs": [],
      "name": "refund",
      "outputs": [],
      "payable": false,
      "stateMutability": "nonpayable",
      "type": "function"
    }
  ],
  "bytecode": "0x608060405260405180608001604052806040518060400160405280600681526020017f6c6576656c31000000000000000000000000000000000000000000000000000081525081526020016040518060400160405280600681526020017f6c6576656c32000000000000000000000000000000000000000000000000000081525081526020016040518060400160405280600681526020017f6c6576656c33000000000000000000000000000000000000000000000000000081525081526020016040518060400160405280600681526020017f6c6576656c34000000000000000000000000000000000000000000000000000081525081525060019060046200010b9291906200044c565b5060016000600481106200011b57fe5b01600590805460018160011615610100020316600290046200013f929190620004a6565b503480156200014d57600080fd5b50604051620029ec380380620029ec833981810160405260808110156200017357600080fd5b8101908080519060200190929190805190602001909291908051906020019092919080519060200190929190505050336000806101000a81548173ffffffffffffffffffffffffffffffffffffffff021916908373ffffffffffffffffffffffffffffffffffffffff1602179055508360068190555082600781905550806009819055506000604051620002079062000534565b80828152602001915050604051809103906000f0801580156200022e573d6000803e3d6000fd5b50600e60026101000a81548173ffffffffffffffffffffffffffffffffffffffff021916908373ffffffffffffffffffffffffffffffffffffffff160217905550336000806101000a81548173ffffffffffffffffffffffffffffffffffffffff021916908373ffffffffffffffffffffffffffffffffffffffff16021790555060008090505b60048160ff161015620003fc5760008160ff1614156200035b5782600b60018360ff1660048110620002e357fe5b016040518082805460018160011615610100020316600290048015620003435780601f106200032057610100808354040283529182019162000343565b820191906000526020600020905b8154815290600101906020018083116200032e575b50509150509081526020016040518091039020819055505b6001810160ff168302600b60018360ff16600481106200037757fe5b016040518082805460018160011615610100020316600290048015620003d75780601f10620003b4576101008083540402835291820191620003d7565b820191906000526020600020905b815481529060010190602001808311620003c2575b50509150509081526020016040518091039020819055508080600101915050620002b5565b50600b60405180807f6c6576656c3100000000000000000000000000000000000000000000000000008152506006019050908152602001604051809103902054600881905550505050506200066e565b826004810192821562000493579160200282015b82811115620004925782518290805190602001906200048192919062000542565b509160200191906001019062000460565b5b509050620004a29190620005c9565b5090565b828054600181600116156101000203166002900490600052602060002090601f016020900481019282601f10620004e1578054855562000521565b828001600101855582156200052157600052602060002091601f016020900482015b828111156200052057825482559160010191906001019062000503565b5b509050620005309190620005fa565b5090565b61142380620015c983390190565b828054600181600116156101000203166002900490600052602060002090601f016020900481019282601f106200058557805160ff1916838001178555620005b6565b82800160010185558215620005b6579182015b82811115620005b557825182559160200191906001019062000598565b5b509050620005c59190620005fa565b5090565b620005f791905b80821115620005f35760008181620005e9919062000622565b50600101620005d0565b5090565b90565b6200061f91905b808211156200061b57600081600090555060010162000601565b5090565b90565b50805460018160011615610100020316600290046000825580601f106200064a57506200066b565b601f0160209004906000526020600020908101906200066a9190620005fa565b5b50565b610f4b806200067e6000396000f3fe6080604052600436106100f35760003560e01c80638da5cb5b1161008a578063e8b5e51f11610059578063e8b5e51f14610320578063ed0ea0031461032a578063ee56cf411461038f578063fee148a9146103ba576100f3565b80638da5cb5b14610218578063ac624f521461026f578063bab34f43146102c6578063cb6f16d4146102f1576100f3565b80634bb278f3116100c65780634bb278f314610190578063590e1ae3146101a757806378e97925146101be5780638d4e4083146101e9576100f3565b80631c0a5c10146100f85780633197cbb614610123578063367227dc1461014e57806338ef938014610165575b600080fd5b34801561010457600080fd5b5061010d61044a565b6040518082815260200191505060405180910390f35b34801561012f57600080fd5b50610138610450565b6040518082815260200191505060405180910390f35b34801561015a57600080fd5b50610163610456565b005b34801561017157600080fd5b5061017a6107fe565b6040518082815260200191505060405180910390f35b34801561019c57600080fd5b506101a5610804565b005b3480156101b357600080fd5b506101bc610958565b005b3480156101ca57600080fd5b506101d3610acd565b6040518082815260200191505060405180910390f35b3480156101f557600080fd5b506101fe610ad3565b604051808215151515815260200191505060405180910390f35b34801561022457600080fd5b5061022d610ae6565b604051808273ffffffffffffffffffffffffffffffffffffffff1673ffffffffffffffffffffffffffffffffffffffff16815260200191505060405180910390f35b34801561027b57600080fd5b50610284610b0b565b604051808273ffffffffffffffffffffffffffffffffffffffff1673ffffffffffffffffffffffffffffffffffffffff16815260200191505060405180910390f35b3480156102d257600080fd5b506102db610b31565b6040518082815260200191505060405180910390f35b3480156102fd57600080fd5b50610306610b37565b604051808215151515815260200191505060405180910390f35b610328610b4a565b005b34801561033657600080fd5b506103796004803603602081101561034d57600080fd5b81019080803573ffffffffffffffffffffffffffffffffffffffff169060200190929190505050610c1f565b6040518082815260200191505060405180910390f35b34801561039b57600080fd5b506103a4610c37565b6040518082815260200191505060405180910390f35b3480156103c657600080fd5b506103cf610c3d565b6040518080602001828103825283818151815260200191508051906020019080838360005b8381101561040f5780820151818401526020810190506103f4565b50505050905090810190601f16801561043c5780820380516001836020036101000a031916815260200191505b509250505060405180910390f35b600c5481565b60075481565b6000809054906101000a900473ffffffffffffffffffffffffffffffffffffffff1673ffffffffffffffffffffffffffffffffffffffff163373ffffffffffffffffffffffffffffffffffffffff16146104af57600080fd5b600068a2a15d09519be00000600c5411159050600068a2a15d09519be00000600c541180156104ea575069021e19e0c9bab2400000600c5411155b9050600069021e19e0c9bab2400000600c541180156105135750670de0b6b3a7640000600c5411155b9050600067d02ab486cedc0000600c5411905083156105db57600160006004811061053a57fe5b016005908054600181600116156101000203166002900461055c929190610e6a565b50600b600560405180828054600181600116156101000203166002900480156105bc5780601f1061059a5761010080835404028352918201916105bc565b820191906000526020600020905b8154815290600101906020018083116105a8575b50509150509081526020016040518091039020546008819055506107f8565b821561068f57600180600481106105ee57fe5b0160059080546001816001161561010002031660029004610610929190610e6a565b50600b600560405180828054600181600116156101000203166002900480156106705780601f1061064e576101008083540402835291820191610670565b820191906000526020600020905b81548152906001019060200180831161065c575b50509150509081526020016040518091039020546008819055506107f7565b81156107445760016002600481106106a357fe5b01600590805460018160011615610100020316600290046106c5929190610e6a565b50600b600560405180828054600181600116156101000203166002900480156107255780601f10610703576101008083540402835291820191610725565b820191906000526020600020905b815481529060010190602001808311610711575b50509150509081526020016040518091039020546008819055506107f6565b80156107f557600160036004811061075857fe5b016005908054600181600116156101000203166002900461077a929190610e6a565b50600b600560405180828054600181600116156101000203166002900480156107da5780601f106107b85761010080835404028352918201916107da565b820191906000526020600020905b8154815290600101906020018083116107c6575b50509150509081526020016040518091039020546008819055505b5b5b5b50505050565b600d5481565b6000809054906101000a900473ffffffffffffffffffffffffffffffffffffffff1673ffffffffffffffffffffffffffffffffffffffff163373ffffffffffffffffffffffffffffffffffffffff161461085d57600080fd5b600e60009054906101000a900460ff161561087757600080fd5b6000600190506000600954600c5410159050811561095457801561091c57600e60029054906101000a900473ffffffffffffffffffffffffffffffffffffffff1673ffffffffffffffffffffffffffffffffffffffff166386d1a69f6040518163ffffffff1660e01b8152600401600060405180830381600087803b1580156108ff57600080fd5b505af1158015610913573d6000803e3d6000fd5b50505050610938565b6001600e60016101000a81548160ff0219169083151502179055505b6001600e60006101000a81548160ff0219169083151502179055505b5050565b600e60019054906101000a900460ff1661097157600080fd5b6000600a60003373ffffffffffffffffffffffffffffffffffffffff1673ffffffffffffffffffffffffffffffffffffffff16815260200190815260200160002054905060008114156109c357600080fd5b6000600a60003373ffffffffffffffffffffffffffffffffffffffff1673ffffffffffffffffffffffffffffffffffffffff1681526020019081526020016000208190555080600d600082825401925050819055507fbb28353e4598c3b9199101a66e0989549b659a59a54d2c27fbb183f1932c8e6d3382604051808373ffffffffffffffffffffffffffffffffffffffff1673ffffffffffffffffffffffffffffffffffffffff1681526020018281526020019250505060405180910390a13373ffffffffffffffffffffffffffffffffffffffff166108fc829081150290604051600060405180830381858888f19350505050158015610ac9573d6000803e3d6000fd5b5050565b60065481565b600e60009054906101000a900460ff1681565b6000809054906101000a900473ffffffffffffffffffffffffffffffffffffffff1681565b600e60029054906101000a900473ffffffffffffffffffffffffffffffffffffffff1681565b60095481565b600e60019054906101000a900460ff1681565b610b5334610cdb565b610b5c57600080fd5b6000339050600034905080600a60008473ffffffffffffffffffffffffffffffffffffffff1673ffffffffffffffffffffffffffffffffffffffff1681526020019081526020016000206000828254019250508190555080600c60008282540192505081905550610bcd8282610d82565b8173ffffffffffffffffffffffffffffffffffffffff167fc74590e3281392e897f5c0f45530951cfe0db0e86c76d65af861e80b925871a4826040518082815260200191505060405180910390a25050565b600a6020528060005260406000206000915090505481565b60085481565b60058054600181600116156101000203166002900480601f016020809104026020016040519081016040528092919081815260200182805460018160011615610100020316600290048015610cd35780601f10610ca857610100808354040283529160200191610cd3565b820191906000526020600020905b815481529060010190602001808311610cb657829003601f168201915b505050505081565b600080600083141590506000600190506000600b60056040518082805460018160011615610100020316600290048015610d4c5780601f10610d2a576101008083540402835291820191610d4c565b820191906000526020600020905b815481529060010190602001808311610d38575b50509150509081526020016040518091039020548510159050828015610d6f5750815b8015610d785750805b9350505050919050565b6000610d8d82610e55565b9050600e60029054906101000a900473ffffffffffffffffffffffffffffffffffffffff1673ffffffffffffffffffffffffffffffffffffffff166340c10f1984836040518363ffffffff1660e01b8152600401808373ffffffffffffffffffffffffffffffffffffffff1673ffffffffffffffffffffffffffffffffffffffff16815260200182815260200192505050600060405180830381600087803b158015610e3857600080fd5b505af1158015610e4c573d6000803e3d6000fd5b50505050505050565b60006008548281610e6257fe5b049050919050565b828054600181600116156101000203166002900490600052602060002090601f016020900481019282601f10610ea35780548555610ee0565b82800160010185558215610ee057600052602060002091601f016020900482015b82811115610edf578254825591600101919060010190610ec4565b5b509050610eed9190610ef1565b5090565b610f1391905b80821115610f0f576000816000905550600101610ef7565b5090565b9056fea265627a7a72315820a00291b722b398fa4c8f1aadefc99f401fe702b14629841fc58b5cb92051d93064736f6c63430005100032608060405234801561001057600080fd5b506040516114233803806114238339818101604052602081101561003357600080fd5b810190808051906020019092919050505080336000806101000a81548173ffffffffffffffffffffffffffffffffffffffff021916908373ffffffffffffffffffffffffffffffffffffffff160217905550336000806101000a81548173ffffffffffffffffffffffffffffffffffffffff021916908373ffffffffffffffffffffffffffffffffffffffff16021790555080600160003373ffffffffffffffffffffffffffffffffffffffff1673ffffffffffffffffffffffffffffffffffffffff1681526020019081526020016000208190555061013a6000809054906101000a900473ffffffffffffffffffffffffffffffffffffffff168261014160201b60201c565b5050610271565b6000809054906101000a900473ffffffffffffffffffffffffffffffffffffffff1673ffffffffffffffffffffffffffffffffffffffff163373ffffffffffffffffffffffffffffffffffffffff161461019a57600080fd5b80600160008473ffffffffffffffffffffffffffffffffffffffff1673ffffffffffffffffffffffffffffffffffffffff168152602001908152602001600020600082825401925050819055508173ffffffffffffffffffffffffffffffffffffffff166000809054906101000a900473ffffffffffffffffffffffffffffffffffffffff1673ffffffffffffffffffffffffffffffffffffffff167fddf252ad1be2c89b69c2b068fc378daa952ba7f163c4a11628f55a4df523b3ef836040518082815260200191505060405180910390a35050565b6111a3806102806000396000f3fe608060405234801561001057600080fd5b50600436106100f55760003560e01c806386d1a69f11610097578063b414d4b611610066578063b414d4b61461047a578063c1dbd9b2146104d6578063dd62ed3e1461053c578063e724529c146105b4576100f5565b806386d1a69f146103b65780638da5cb5b146103c0578063961325211461040a578063a9059cbb1461042c576100f5565b806340c10f19116100d357806340c10f191461020a5780636c02a9311461025857806370a08231146102db5780637b61c32014610333576100f5565b8063095ea7b3146100fa57806323b872dd14610160578063313ce567146101e6575b600080fd5b6101466004803603604081101561011057600080fd5b81019080803573ffffffffffffffffffffffffffffffffffffffff16906020019092919080359060200190929190505050610604565b604051808215151515815260200191505060405180910390f35b6101cc6004803603606081101561017657600080fd5b81019080803573ffffffffffffffffffffffffffffffffffffffff169060200190929190803573ffffffffffffffffffffffffffffffffffffffff169060200190929190803590602001909291905050506106f6565b604051808215151515815260200191505060405180910390f35b6101ee610a4a565b604051808260ff1660ff16815260200191505060405180910390f35b6102566004803603604081101561022057600080fd5b81019080803573ffffffffffffffffffffffffffffffffffffffff16906020019092919080359060200190929190505050610a4f565b005b610260610b7f565b6040518080602001828103825283818151815260200191508051906020019080838360005b838110156102a0578082015181840152602081019050610285565b50505050905090810190601f1680156102cd5780820380516001836020036101000a031916815260200191505b509250505060405180910390f35b61031d600480360360208110156102f157600080fd5b81019080803573ffffffffffffffffffffffffffffffffffffffff169060200190929190505050610bb8565b6040518082815260200191505060405180910390f35b61033b610c01565b6040518080602001828103825283818151815260200191508051906020019080838360005b8381101561037b578082015181840152602081019050610360565b50505050905090810190601f1680156103a85780820380516001836020036101000a031916815260200191505b509250505060405180910390f35b6103be610c3a565b005b6103c8610cb0565b604051808273ffffffffffffffffffffffffffffffffffffffff1673ffffffffffffffffffffffffffffffffffffffff16815260200191505060405180910390f35b610412610cd5565b604051808215151515815260200191505060405180910390f35b6104786004803603604081101561044257600080fd5b81019080803573ffffffffffffffffffffffffffffffffffffffff16906020019092919080359060200190929190505050610ce8565b005b6104bc6004803603602081101561049057600080fd5b81019080803573ffffffffffffffffffffffffffffffffffffffff169060200190929190505050610f17565b604051808215151515815260200191505060405180910390f35b610522600480360360408110156104ec57600080fd5b81019080803573ffffffffffffffffffffffffffffffffffffffff16906020019092919080359060200190929190505050610f37565b604051808215151515815260200191505060405180910390f35b61059e6004803603604081101561055257600080fd5b81019080803573ffffffffffffffffffffffffffffffffffffffff169060200190929190803573ffffffffffffffffffffffffffffffffffffffff169060200190929190505050610fc4565b6040518082815260200191505060405180910390f35b610602600480360360408110156105ca57600080fd5b81019080803573ffffffffffffffffffffffffffffffffffffffff16906020019092919080351515906020019092919050505061104b565b005b600081600260003373ffffffffffffffffffffffffffffffffffffffff1673ffffffffffffffffffffffffffffffffffffffff16815260200190815260200160002060008573ffffffffffffffffffffffffffffffffffffffff1673ffffffffffffffffffffffffffffffffffffffff168152602001908152602001600020819055508273ffffffffffffffffffffffffffffffffffffffff163373ffffffffffffffffffffffffffffffffffffffff167f8c5be1e5ebec7d5bd14f71427d1e84f3dd0314c0f7b2291e5b200ac8c7c3b925846040518082815260200191505060405180910390a36001905092915050565b6000600460009054906101000a900460ff1661071157600080fd5b60008373ffffffffffffffffffffffffffffffffffffffff16141561073557600080fd5b81600160008673ffffffffffffffffffffffffffffffffffffffff1673ffffffffffffffffffffffffffffffffffffffff16815260200190815260200160002054101561078157600080fd5b600160008473ffffffffffffffffffffffffffffffffffffffff1673ffffffffffffffffffffffffffffffffffffffff1681526020019081526020016000205482600160008673ffffffffffffffffffffffffffffffffffffffff1673ffffffffffffffffffffffffffffffffffffffff1681526020019081526020016000205401101561080e57600080fd5b600260008573ffffffffffffffffffffffffffffffffffffffff1673ffffffffffffffffffffffffffffffffffffffff16815260200190815260200160002060003373ffffffffffffffffffffffffffffffffffffffff1673ffffffffffffffffffffffffffffffffffffffff1681526020019081526020016000205482111561089757600080fd5b600460009054906101000a900460ff1615610a3e5781600160008673ffffffffffffffffffffffffffffffffffffffff1673ffffffffffffffffffffffffffffffffffffffff1681526020019081526020016000206000828254039250508190555081600160008573ffffffffffffffffffffffffffffffffffffffff1673ffffffffffffffffffffffffffffffffffffffff1681526020019081526020016000206000828254019250508190555081600260008673ffffffffffffffffffffffffffffffffffffffff1673ffffffffffffffffffffffffffffffffffffffff16815260200190815260200160002060003373ffffffffffffffffffffffffffffffffffffffff1673ffffffffffffffffffffffffffffffffffffffff168152602001908152602001600020600082825403925050819055508273ffffffffffffffffffffffffffffffffffffffff168473ffffffffffffffffffffffffffffffffffffffff167fddf252ad1be2c89b69c2b068fc378daa952ba7f163c4a11628f55a4df523b3ef846040518082815260200191505060405180910390a360019050610a43565b600080fd5b9392505050565b601281565b6000809054906101000a900473ffffffffffffffffffffffffffffffffffffffff1673ffffffffffffffffffffffffffffffffffffffff163373ffffffffffffffffffffffffffffffffffffffff1614610aa857600080fd5b80600160008473ffffffffffffffffffffffffffffffffffffffff1673ffffffffffffffffffffffffffffffffffffffff168152602001908152602001600020600082825401925050819055508173ffffffffffffffffffffffffffffffffffffffff166000809054906101000a900473ffffffffffffffffffffffffffffffffffffffff1673ffffffffffffffffffffffffffffffffffffffff167fddf252ad1be2c89b69c2b068fc378daa952ba7f163c4a11628f55a4df523b3ef836040518082815260200191505060405180910390a35050565b6040518060400160405280600581526020017f706561726c00000000000000000000000000000000000000000000000000000081525081565b6000600160008373ffffffffffffffffffffffffffffffffffffffff1673ffffffffffffffffffffffffffffffffffffffff168152602001908152602001600020549050919050565b6040518060400160405280600381526020017f534354000000000000000000000000000000000000000000000000000000000081525081565b6000809054906101000a900473ffffffffffffffffffffffffffffffffffffffff1673ffffffffffffffffffffffffffffffffffffffff163373ffffffffffffffffffffffffffffffffffffffff1614610c9357600080fd5b6001600460006101000a81548160ff021916908315150217905550565b6000809054906101000a900473ffffffffffffffffffffffffffffffffffffffff1681565b600460009054906101000a900460ff1681565b600460009054906101000a900460ff16610d0157600080fd5b60008273ffffffffffffffffffffffffffffffffffffffff161415610d2557600080fd5b80600160003373ffffffffffffffffffffffffffffffffffffffff1673ffffffffffffffffffffffffffffffffffffffff1681526020019081526020016000205411610d7057600080fd5b600160008373ffffffffffffffffffffffffffffffffffffffff1673ffffffffffffffffffffffffffffffffffffffff1681526020019081526020016000205481600160008573ffffffffffffffffffffffffffffffffffffffff1673ffffffffffffffffffffffffffffffffffffffff16815260200190815260200160002054011015610dfd57600080fd5b600460009054906101000a900460ff1615610f125780600160003373ffffffffffffffffffffffffffffffffffffffff1673ffffffffffffffffffffffffffffffffffffffff1681526020019081526020016000206000828254039250508190555080600160008473ffffffffffffffffffffffffffffffffffffffff1673ffffffffffffffffffffffffffffffffffffffff168152602001908152602001600020600082825401925050819055508173ffffffffffffffffffffffffffffffffffffffff163373ffffffffffffffffffffffffffffffffffffffff167fddf252ad1be2c89b69c2b068fc378daa952ba7f163c4a11628f55a4df523b3ef836040518082815260200191505060405180910390a35b600080fd5b60036020528060005260406000206000915054906101000a900460ff1681565b600081600260003373ffffffffffffffffffffffffffffffffffffffff1673ffffffffffffffffffffffffffffffffffffffff16815260200190815260200160002060008573ffffffffffffffffffffffffffffffffffffffff1673ffffffffffffffffffffffffffffffffffffffff168152602001908152602001600020819055506001905092915050565b6000600260008473ffffffffffffffffffffffffffffffffffffffff1673ffffffffffffffffffffffffffffffffffffffff16815260200190815260200160002060008373ffffffffffffffffffffffffffffffffffffffff1673ffffffffffffffffffffffffffffffffffffffff16815260200190815260200160002054905092915050565b6000809054906101000a900473ffffffffffffffffffffffffffffffffffffffff1673ffffffffffffffffffffffffffffffffffffffff163373ffffffffffffffffffffffffffffffffffffffff16146110a457600080fd5b80600360008473ffffffffffffffffffffffffffffffffffffffff1673ffffffffffffffffffffffffffffffffffffffff16815260200190815260200160002060006101000a81548160ff0219169083151502179055507f67a17b8db8ff8fa7cff69c2328bf8a35f9be2c88abeea30be900fc28eece28ed8282604051808373ffffffffffffffffffffffffffffffffffffffff1673ffffffffffffffffffffffffffffffffffffffff168152602001821515151581526020019250505060405180910390a1505056fea265627a7a7231582041a090ac094821eaf86fe59cbde867b6bd678bd180b62349a91a88f4d3bb9cb364736f6c63430005100032",
  "source": "// SPDX-License-Identifier: MIT\npragma solidity >=0.4.22 <0.9.0;\n\nimport \"./Ownable.sol\";\nimport \"./KCoin.sol\";\n\ncontract CrowdFund is Ownable {\n    constructor(\n        uint256 _startTime,\n        uint256 _endTime,\n        uint256 _weiTokenPrice,\n        uint256 _etherInvestmentObject\n    ) public {\n        startTime = _startTime;\n        endTime = _endTime;\n        weiInvestmentObjective = _etherInvestmentObject;\n        crowdSaleToken = new KCoin(0);\n        owner = msg.sender;\n\n        for (uint8 i = 0; i < PriceLevel.length; i++) {\n            if (i == 0) {\n                tokenPrice[PriceLevel[i]] = _weiTokenPrice;\n            }\n\n            tokenPrice[PriceLevel[i]] = _weiTokenPrice * (i + 1);\n        }\n\n        weiTokenPrice = tokenPrice[\"level1\"];\n    }\n\n    string[4] private PriceLevel = [\"level1\", \"level2\", \"level3\", \"level4\"];\n    string public tokenPriceLevel = PriceLevel[0];\n\n    uint256 public startTime;\n    uint256 public endTime;\n    uint256 public weiTokenPrice; //price of token being sold\n    uint256 public weiInvestmentObjective; //minmum capital raise target.\n\n    mapping(address => uint256) public investmentAmount;\n    mapping(string => uint256) private tokenPrice;\n    uint256 public investmentReceived; //total Ether received from investors\n    uint256 public investmentRefunded; //total Ether refunded to investors.\n\n    bool public isFinalized; //inidacted if crowdfunding is finalized\n    bool public isRefundingAllowed; //indicates wheather refunding is allowed.\n\n    KCoin public crowdSaleToken;\n\n    event LogInvestment(address indexed investor, uint256 value);\n    event LogTokenAsignment(address investor, uint256 numTokens);\n\n    function adjustPriceLevel() external onlyOwner {\n        bool level1 = investmentReceived <= 3000000000000000000000 wei;\n\n        bool level2 = investmentReceived > 3000000000000000000000 wei &&\n            investmentReceived <= 10000000000000000000000 wei;\n\n        bool level3 = investmentReceived > 10000000000000000000000 wei &&\n            investmentReceived <= 1000000000000000000 wei;\n\n        bool level4 = investmentReceived > 15000000000000000000 wei;\n\n        if (level1) {\n            tokenPriceLevel = PriceLevel[0];\n            weiTokenPrice = tokenPrice[tokenPriceLevel];\n        } else if (level2) {\n            tokenPriceLevel = PriceLevel[1];\n            weiTokenPrice = tokenPrice[tokenPriceLevel];\n        } else if (level3) {\n            tokenPriceLevel = PriceLevel[2];\n            weiTokenPrice = tokenPrice[tokenPriceLevel];\n        } else if (level4) {\n            tokenPriceLevel = PriceLevel[3];\n            weiTokenPrice = tokenPrice[tokenPriceLevel];\n        }\n    }\n\n    function invest() public payable {\n        require(isValidInvestmentValue(msg.value));\n\n        address investor = msg.sender;\n        uint256 investment = msg.value;\n\n        investmentAmount[investor] += investment;\n        investmentReceived += investment;\n\n        assignTokens(investor, investment);\n        emit LogInvestment(investor, investment);\n    }\n\n    function isValidInvestmentValue(uint256 investment)\n        internal\n        view\n        returns (bool)\n    {\n        bool nonZeroInvestment = investment != 0;\n        bool withinCrowdsalePeriod = true; //block.timestamp >= startTime &&\n        // block.timestamp <= endTime;\n        bool correctAmount = investment >= tokenPrice[tokenPriceLevel];\n        return nonZeroInvestment && withinCrowdsalePeriod && correctAmount;\n    }\n\n    function assignTokens(address beneficiary, uint256 amount) internal {\n        uint256 numOfToken = calculateNumberOfToken(amount);\n        crowdSaleToken.mint(beneficiary, numOfToken);\n    }\n\n    function calculateNumberOfToken(uint256 amount)\n        internal\n        view\n        returns (uint256)\n    {\n        return amount / weiTokenPrice;\n    }\n\n    function finalize() public onlyOwner {\n        if (isFinalized) revert();\n        bool isCrowdsaleComplete = true; //block.timestamp > endTime;\n        bool investmentObjectiveMet = investmentReceived >=\n            weiInvestmentObjective;\n\n        if (isCrowdsaleComplete) {\n            if (investmentObjectiveMet) {\n                crowdSaleToken.release();\n            } else {\n                isRefundingAllowed = true;\n            }\n            isFinalized = true;\n        }\n    }\n\n    event Refund(address investor, uint256 value);\n\n    function refund() public {\n        if (!isRefundingAllowed) {\n            revert();\n        }\n        // address investor = msg.sender;\n        uint256 investment = investmentAmount[msg.sender];\n        if (investment == 0) {\n            revert();\n        }\n        investmentAmount[msg.sender] = 0;\n        investmentRefunded += investment;\n        emit Refund(msg.sender, investment);\n        msg.sender.transfer(investment);\n    }\n}\n",
  "sourcePath": "C:/Users/user/Desktop/projects/crowdManager/src/contracts/CrowdFund.sol",
  "compiler": {
    "name": "solc",
    "version": "0.5.16+commit.9c3226ce.Emscripten.clang"
  },
  "schemaVersion": "3.3.3",
  "updatedAt": "2020-12-24T09:21:43.458Z",
  "devdoc": {
    "methods": {}
  },
  "userdoc": {
    "methods": {}
  }
}